{
  "contractName": "Booking",
  "abi": [
    {
      "constant": true,
      "inputs": [],
      "name": "periodsCount",
      "outputs": [
        {
          "name": "",
          "type": "uint256"
        }
      ],
      "payable": false,
      "stateMutability": "view",
      "type": "function"
    },
    {
      "constant": true,
      "inputs": [
        {
          "name": "",
          "type": "address"
        }
      ],
      "name": "personsBooked",
      "outputs": [
        {
          "name": "",
          "type": "bool"
        }
      ],
      "payable": false,
      "stateMutability": "view",
      "type": "function"
    },
    {
      "constant": true,
      "inputs": [
        {
          "name": "",
          "type": "uint256"
        }
      ],
      "name": "periods",
      "outputs": [
        {
          "name": "id",
          "type": "uint256"
        },
        {
          "name": "period",
          "type": "string"
        },
        {
          "name": "isPeriodAvailable",
          "type": "bool"
        }
      ],
      "payable": false,
      "stateMutability": "view",
      "type": "function"
    },
    {
      "inputs": [],
      "payable": false,
      "stateMutability": "nonpayable",
      "type": "constructor"
    },
    {
      "anonymous": false,
      "inputs": [
        {
          "indexed": true,
          "name": "_periodId",
          "type": "uint256"
        }
      ],
      "name": "bookedEvent",
      "type": "event"
    },
    {
      "constant": false,
      "inputs": [
        {
          "name": "_periodId",
          "type": "uint256"
        }
      ],
      "name": "book",
      "outputs": [],
      "payable": false,
      "stateMutability": "nonpayable",
      "type": "function"
    }
  ],
  "bytecode": "0x608060405234801561001057600080fd5b506100556040518060400160405280600881526020017f506572696f64203100000000000000000000000000000000000000000000000081525061016a60201b60201c565b6100996040518060400160405280600881526020017f506572696f64203200000000000000000000000000000000000000000000000081525061016a60201b60201c565b6100dd6040518060400160405280600881526020017f506572696f64203300000000000000000000000000000000000000000000000081525061016a60201b60201c565b6101216040518060400160405280600881526020017f506572696f64203400000000000000000000000000000000000000000000000081525061016a60201b60201c565b6101656040518060400160405280600881526020017f506572696f64203500000000000000000000000000000000000000000000000081525061016a60201b60201c565b61029e565b60026000815480929190600101919050555060025460008060025481526020019081526020016000206000018190555080600080600254815260200190815260200160002060010190805190602001906101c59291906101f9565b506001600080600254815260200190815260200160002060020160006101000a81548160ff02191690831515021790555050565b828054600181600116156101000203166002900490600052602060002090601f016020900481019282601f1061023a57805160ff1916838001178555610268565b82800160010185558215610268579182015b8281111561026757825182559160200191906001019061024c565b5b5090506102759190610279565b5090565b61029b91905b8082111561029757600081600090555060010161027f565b5090565b90565b6103fa806102ad6000396000f3fe608060405234801561001057600080fd5b506004361061004c5760003560e01c80631116fd04146100515780632d62d1af1461007f57806375331a4a1461009d578063ea4a1104146100f9575b600080fd5b61007d6004803603602081101561006757600080fd5b81019080803590602001909291905050506101b2565b005b6100876102d9565b6040518082815260200191505060405180910390f35b6100df600480360360208110156100b357600080fd5b81019080803573ffffffffffffffffffffffffffffffffffffffff1690602001909291905050506102df565b604051808215151515815260200191505060405180910390f35b6101256004803603602081101561010f57600080fd5b81019080803590602001909291905050506102ff565b604051808481526020018060200183151515158152602001828103825284818151815260200191508051906020019080838360005b8381101561017557808201518184015260208101905061015a565b50505050905090810190601f1680156101a25780820380516001836020036101000a031916815260200191505b5094505050505060405180910390f35b600160003373ffffffffffffffffffffffffffffffffffffffff1673ffffffffffffffffffffffffffffffffffffffff16815260200190815260200160002060009054906101000a900460ff161561020957600080fd5b60008111801561021b57506002548111155b61022457600080fd5b60018060003373ffffffffffffffffffffffffffffffffffffffff1673ffffffffffffffffffffffffffffffffffffffff16815260200190815260200160002060006101000a81548160ff021916908315150217905550600080600083815260200190815260200160002060020160006101000a81548160ff021916908315150217905550807f107415d6c16a431a454b977572c089f586064f57b2bdbf629aaf756739cdcc4860405160405180910390a250565b60025481565b60016020528060005260406000206000915054906101000a900460ff1681565b6000602052806000526040600020600091509050806000015490806001018054600181600116156101000203166002900480601f0160208091040260200160405190810160405280929190818152602001828054600181600116156101000203166002900480156103b15780601f10610386576101008083540402835291602001916103b1565b820191906000526020600020905b81548152906001019060200180831161039457829003601f168201915b5050505050908060020160009054906101000a900460ff1690508356fea165627a7a7230582048bf5bcac47ad5a6be7d6f4775627ecf5f0a19606ae82a21a7e61ab008a046d60029",
  "source": "pragma solidity ^0.5.0;\r\n\r\ncontract Booking {\r\n\r\n    // Model a Period struct for a booking period\r\n    struct Period {\r\n        uint id;\r\n        string period;\r\n        bool isPeriodAvailable;\r\n    }\r\n\r\n    // List of periods under booking and the status of the booking per period\r\n    mapping(uint => Period) public periods;\r\n\r\n    // Store accounts that have already booked a period to check double-booking\r\n    mapping(address => bool) public personsBooked;\r\n\r\n    // Store count of the periods under booking\r\n    uint public periodsCount;\r\n\r\n    // Event that triggers the disable of the submit button\r\n    event bookedEvent (\r\n        uint indexed _periodId\r\n    );\r\n\r\n    constructor () public {\r\n        addPeriod(\"Period 1\");\r\n        addPeriod(\"Period 2\");\r\n        addPeriod(\"Period 3\");\r\n        addPeriod(\"Period 4\");\r\n        addPeriod(\"Period 5\");\r\n    }\r\n\r\n    // Function to add a period available for booking to the mapping structure\r\n    function addPeriod(string memory _period) private {\r\n        periodsCount ++;\r\n        periods[periodsCount].id = periodsCount;\r\n        periods[periodsCount].period = _period;\r\n        periods[periodsCount].isPeriodAvailable = true;\r\n    }\r\n\r\n    // Function for booking\r\n    function book (uint _periodId) public {\r\n        // Check that the booking person has not booked a period yet\r\n        require(!personsBooked[msg.sender]);\r\n\r\n        // Check that the period to be booked is valid\r\n        require(_periodId > 0 && _periodId <= periodsCount);\r\n\r\n        // Record that booking person has booked a period\r\n        personsBooked[msg.sender] = true;\r\n\r\n        // Update the status of the booking to false  (i.e booked)\r\n        periods[_periodId].isPeriodAvailable = false;\r\n\r\n\r\n        // Trigger booked event\r\n        emit bookedEvent(_periodId);\r\n\r\n    }\r\n\r\n}",
  "sourcePath": "E:/Projects/booking/contracts/Booking.sol",
  "compiler": {
    "name": "solc",
    "version": "0.5.8+commit.23d335f2.Emscripten.clang"
  },
  "schemaVersion": "3.0.17",
  "updatedAt": "2019-11-24T08:07:22.506Z",
  "networkType": "ethereum",
  "devdoc": {
    "methods": {}
  },
  "userdoc": {
    "methods": {}
  }
}